{
  "transactions": [
    {
      "hash": "0x0c1220a89edf9bd05f8cc06abf77e7d7b1395f54548d4effb0c22f07f23a378e",
      "transactionType": "CALL",
      "contractName": null,
      "contractAddress": "0x9ef4b7e09c0ee4a777c1d129afac10bcf889e4e6",
      "function": "approve(address,uint256)",
      "arguments": [
        "0x04D2a0E0b072FD6483bfAb8347B59ccF817Bc836",
        "10000000000000000000000"
      ],
      "transaction": {
        "from": "0xa031f11d7cdf039eef0e73e47bd5b487f3659b65",
        "to": "0x9ef4b7e09c0ee4a777c1d129afac10bcf889e4e6",
        "gas": "0x232cb",
        "value": "0x0",
        "input": "0x095ea7b300000000000000000000000004d2a0e0b072fd6483bfab8347b59ccf817bc83600000000000000000000000000000000000000000000021e19e0c9bab2400000",
        "nonce": "0x11a",
        "chainId": "0x8f"
      },
      "additionalContracts": [],
      "isFixedGasLimit": false
    },
    {
      "hash": "0xf5fee8287287538d92e877fa223442e23780cabfdfde5477d235751f435a4f43",
      "transactionType": "CALL",
      "contractName": null,
      "contractAddress": "0x04d2a0e0b072fd6483bfab8347b59ccf817bc836",
      "function": "notifyRewardAmount(address,uint256)",
      "arguments": [
        "0xD7102922c5Cae1BF165f708dB5b056F48A4220DD",
        "10000000000000000000000"
      ],
      "transaction": {
        "from": "0xa031f11d7cdf039eef0e73e47bd5b487f3659b65",
        "to": "0x04d2a0e0b072fd6483bfab8347b59ccf817bc836",
        "gas": "0x14bbc6",
        "value": "0x0",
        "input": "0xb66503cf000000000000000000000000d7102922c5cae1bf165f708db5b056f48a4220dd00000000000000000000000000000000000000000000021e19e0c9bab2400000",
        "nonce": "0x11b",
        "chainId": "0x8f"
      },
      "additionalContracts": [],
      "isFixedGasLimit": false
    }
  ],
  "receipts": [
    {
      "status": "0x1",
      "cumulativeGasUsed": "0x3b320a",
      "logs": [
        {
          "address": "0x9ef4b7e09c0ee4a777c1d129afac10bcf889e4e6",
          "topics": [
            "0x8c5be1e5ebec7d5bd14f71427d1e84f3dd0314c0f7b2291e5b200ac8c7c3b925",
            "0x000000000000000000000000a031f11d7cdf039eef0e73e47bd5b487f3659b65",
            "0x00000000000000000000000004d2a0e0b072fd6483bfab8347b59ccf817bc836"
          ],
          "data": "0x00000000000000000000000000000000000000000000021e19e0c9bab2400000",
          "blockHash": "0xc25e6570f120555867676a7c7184b52169629c2ac6eeeb14369ebb1e921acb98",
          "blockNumber": "0x4e88080",
          "blockTimestamp": "0x6a3572d7",
          "transactionHash": "0x0c1220a89edf9bd05f8cc06abf77e7d7b1395f54548d4effb0c22f07f23a378e",
          "transactionIndex": "0x8",
          "logIndex": "0x19",
          "removed": false
        }
      ],
      "logsBloom": "0x00000000000000000000000000000000000000000000000000000000000000000000000001000000000000000000000000000000000000000000000000200000000000000000000000000000000000000000000000000000000000000020000000000000000000000000400000000000000000000800000000000000000000000000000000000000000000800000000000400000000000000000000000002000020000000000000000000000000000000000000000000000000000000000000000000000002000000000000000000000000000000000000000000000000000000010000000000000000000000000000000000000000000000000080000000000",
      "type": "0x2",
      "transactionHash": "0x0c1220a89edf9bd05f8cc06abf77e7d7b1395f54548d4effb0c22f07f23a378e",
      "transactionIndex": "0x8",
      "blockHash": "0xc25e6570f120555867676a7c7184b52169629c2ac6eeeb14369ebb1e921acb98",
      "blockNumber": "0x4e88080",
      "gasUsed": "0x232cb",
      "effectiveGasPrice": "0x17bfac7c00",
      "from": "0xa031f11d7cdf039eef0e73e47bd5b487f3659b65",
      "to": "0x9ef4b7e09c0ee4a777c1d129afac10bcf889e4e6",
      "contractAddress": null
    },
    {
      "status": "0x1",
      "cumulativeGasUsed": "0x4fedd0",
      "logs": [
        {
          "address": "0x9ef4b7e09c0ee4a777c1d129afac10bcf889e4e6",
          "topics": [
            "0xddf252ad1be2c89b69c2b068fc378daa952ba7f163c4a11628f55a4df523b3ef",
            "0x000000000000000000000000a031f11d7cdf039eef0e73e47bd5b487f3659b65",
            "0x00000000000000000000000004d2a0e0b072fd6483bfab8347b59ccf817bc836"
          ],
          "data": "0x00000000000000000000000000000000000000000000021e19e0c9bab2400000",
          "blockHash": "0xc25e6570f120555867676a7c7184b52169629c2ac6eeeb14369ebb1e921acb98",
          "blockNumber": "0x4e88080",
          "blockTimestamp": "0x6a3572d7",
          "transactionHash": "0xf5fee8287287538d92e877fa223442e23780cabfdfde5477d235751f435a4f43",
          "transactionIndex": "0x9",
          "logIndex": "0x1a",
          "removed": false
        },
        {
          "address": "0x9ef4b7e09c0ee4a777c1d129afac10bcf889e4e6",
          "topics": [
            "0x8c5be1e5ebec7d5bd14f71427d1e84f3dd0314c0f7b2291e5b200ac8c7c3b925",
            "0x00000000000000000000000004d2a0e0b072fd6483bfab8347b59ccf817bc836",
            "0x000000000000000000000000d7102922c5cae1bf165f708db5b056f48a4220dd"
          ],
          "data": "0x00000000000000000000000000000000000000000000021e19e0c9bab2400000",
          "blockHash": "0xc25e6570f120555867676a7c7184b52169629c2ac6eeeb14369ebb1e921acb98",
          "blockNumber": "0x4e88080",
          "blockTimestamp": "0x6a3572d7",
          "transactionHash": "0xf5fee8287287538d92e877fa223442e23780cabfdfde5477d235751f435a4f43",
          "transactionIndex": "0x9",
          "logIndex": "0x1b",
          "removed": false
        },
        {
          "address": "0x9ef4b7e09c0ee4a777c1d129afac10bcf889e4e6",
          "topics": [
            "0xddf252ad1be2c89b69c2b068fc378daa952ba7f163c4a11628f55a4df523b3ef",
            "0x00000000000000000000000004d2a0e0b072fd6483bfab8347b59ccf817bc836",
            "0x000000000000000000000000d7102922c5cae1bf165f708db5b056f48a4220dd"
          ],
          "data": "0x00000000000000000000000000000000000000000000021e19e0c9bab2400000",
          "blockHash": "0xc25e6570f120555867676a7c7184b52169629c2ac6eeeb14369ebb1e921acb98",
          "blockNumber": "0x4e88080",
          "blockTimestamp": "0x6a3572d7",
          "transactionHash": "0xf5fee8287287538d92e877fa223442e23780cabfdfde5477d235751f435a4f43",
          "transactionIndex": "0x9",
          "logIndex": "0x1c",
          "removed": false
        },
        {
          "address": "0xd7102922c5cae1bf165f708db5b056f48a4220dd",
          "topics": [
            "0x095667752957714306e1a6ad83495404412df6fdb932fca6dc849a7ee910d4c1",
            "0x00000000000000000000000004d2a0e0b072fd6483bfab8347b59ccf817bc836"
          ],
          "data": "0x00000000000000000000000000000000000000000000021e19e0c9bab2400000",
          "blockHash": "0xc25e6570f120555867676a7c7184b52169629c2ac6eeeb14369ebb1e921acb98",
          "blockNumber": "0x4e88080",
          "blockTimestamp": "0x6a3572d7",
          "transactionHash": "0xf5fee8287287538d92e877fa223442e23780cabfdfde5477d235751f435a4f43",
          "transactionIndex": "0x9",
          "logIndex": "0x1d",
          "removed": false
        }
      ],
      "logsBloom": "0x00000000000000000000000000000000000000000000000000000008000000000000000001000000000000000000000000000000000000000000000000200000000000400000000008000008000000000000000000000000000000000020000000000000000000000000400000000000000000000800000000000010000000000000000000000200000000800000000000400000000000000000000000002000020000000000000000000000000004000000000000000000000000000000000000000002006000000000000001000000000000000000000000000000200000000110000000000000000000000000000000000000000000000000080000000000",
      "type": "0x2",
      "transactionHash": "0xf5fee8287287538d92e877fa223442e23780cabfdfde5477d235751f435a4f43",
      "transactionIndex": "0x9",
      "blockHash": "0xc25e6570f120555867676a7c7184b52169629c2ac6eeeb14369ebb1e921acb98",
      "blockNumber": "0x4e88080",
      "gasUsed": "0x14bbc6",
      "effectiveGasPrice": "0x17bfac7c00",
      "from": "0xa031f11d7cdf039eef0e73e47bd5b487f3659b65",
      "to": "0x04d2a0e0b072fd6483bfab8347b59ccf817bc836",
      "contractAddress": null
    }
  ],
  "libraries": [],
  "pending": [],
  "returns": {},
  "timestamp": 1781887705443,
  "chain": 143,
  "commit": "e4b9980"
}