{
  "transactions": [
    {
      "hash": "0x71e643221bcc84ca02027f0a965ce00a5b4c7b49e5d17ba976bd837cf9fbc833",
      "transactionType": "CALL",
      "contractName": null,
      "contractAddress": "0x9ef4b7e09c0ee4a777c1d129afac10bcf889e4e6",
      "function": "approve(address,uint256)",
      "arguments": [
        "0x04D2a0E0b072FD6483bfAb8347B59ccF817Bc836",
        "10000000000000000000000"
      ],
      "transaction": {
        "from": "0xa031f11d7cdf039eef0e73e47bd5b487f3659b65",
        "to": "0x9ef4b7e09c0ee4a777c1d129afac10bcf889e4e6",
        "gas": "0xfdb1",
        "value": "0x0",
        "input": "0x095ea7b300000000000000000000000004d2a0e0b072fd6483bfab8347b59ccf817bc83600000000000000000000000000000000000000000000021e19e0c9bab2400000",
        "nonce": "0x118",
        "chainId": "0x8f"
      },
      "additionalContracts": [],
      "isFixedGasLimit": false
    },
    {
      "hash": "0x1816bc51b21ad5e3ef270ac9df4f9aecd7dc82e32b678a931f177f3c8a73f4e4",
      "transactionType": "CALL",
      "contractName": null,
      "contractAddress": "0x04d2a0e0b072fd6483bfab8347b59ccf817bc836",
      "function": "notifyRewardAmount(address,uint256)",
      "arguments": [
        "0xD7102922c5Cae1BF165f708dB5b056F48A4220DD",
        "10000000000000000000000"
      ],
      "transaction": {
        "from": "0xa031f11d7cdf039eef0e73e47bd5b487f3659b65",
        "to": "0x04d2a0e0b072fd6483bfab8347b59ccf817bc836",
        "gas": "0x56405",
        "value": "0x0",
        "input": "0xb66503cf000000000000000000000000d7102922c5cae1bf165f708db5b056f48a4220dd00000000000000000000000000000000000000000000021e19e0c9bab2400000",
        "nonce": "0x119",
        "chainId": "0x8f"
      },
      "additionalContracts": [],
      "isFixedGasLimit": false
    }
  ],
  "receipts": [
    {
      "status": "0x1",
      "cumulativeGasUsed": "0x5bffe6",
      "logs": [
        {
          "address": "0x9ef4b7e09c0ee4a777c1d129afac10bcf889e4e6",
          "topics": [
            "0x8c5be1e5ebec7d5bd14f71427d1e84f3dd0314c0f7b2291e5b200ac8c7c3b925",
            "0x000000000000000000000000a031f11d7cdf039eef0e73e47bd5b487f3659b65",
            "0x00000000000000000000000004d2a0e0b072fd6483bfab8347b59ccf817bc836"
          ],
          "data": "0x00000000000000000000000000000000000000000000021e19e0c9bab2400000",
          "blockHash": "0xadbed8d8cb633542dc774756b2b2742053ad50fb2ae52637a338366b37bbfd91",
          "blockNumber": "0x4e87e83",
          "blockTimestamp": "0x6a35720b",
          "transactionHash": "0x1816bc51b21ad5e3ef270ac9df4f9aecd7dc82e32b678a931f177f3c8a73f4e4",
          "transactionIndex": "0xc",
          "logIndex": "0x38",
          "removed": false
        }
      ],
      "logsBloom": "0x00000000000000000000000000000000000000000000000000000000000000000000000001000000000000000000000000000000000000000000000000200000000000000000000000000000000000000000000000000000000000000020000000000000000000000000400000000000000000000800000000000000000000000000000000000000000000800000000000400000000000000000000000002000020000000000000000000000000000000000000000000000000000000000000000000000002000000000000000000000000000000000000000000000000000000010000000000000000000000000000000000000000000000000080000000000",
      "type": "0x2",
      "transactionHash": "0x1816bc51b21ad5e3ef270ac9df4f9aecd7dc82e32b678a931f177f3c8a73f4e4",
      "transactionIndex": "0xc",
      "blockHash": "0xadbed8d8cb633542dc774756b2b2742053ad50fb2ae52637a338366b37bbfd91",
      "blockNumber": "0x4e87e83",
      "gasUsed": "0xfdb1",
      "effectiveGasPrice": "0x17bfac7c00",
      "from": "0xa031f11d7cdf039eef0e73e47bd5b487f3659b65",
      "to": "0x9ef4b7e09c0ee4a777c1d129afac10bcf889e4e6",
      "contractAddress": null
    }
  ],
  "libraries": [],
  "pending": [],
  "returns": {},
  "timestamp": 1781887501699,
  "chain": 143,
  "commit": "e4b9980"
}