{
  "transactions": [
    {
      "hash": "0xa8a38b9bcf438bbc41d176ebcd604428214945d641a91fee8a4f5c26956d08d2",
      "transactionType": "CALL",
      "contractName": null,
      "contractAddress": "0x9ef4b7e09c0ee4a777c1d129afac10bcf889e4e6",
      "function": "approve(address,uint256)",
      "arguments": [
        "0x04D2a0E0b072FD6483bfAb8347B59ccF817Bc836",
        "1000000000000000000000"
      ],
      "transaction": {
        "from": "0xa031f11d7cdf039eef0e73e47bd5b487f3659b65",
        "to": "0x9ef4b7e09c0ee4a777c1d129afac10bcf889e4e6",
        "gas": "0x3cf82",
        "value": "0x0",
        "input": "0x095ea7b300000000000000000000000004d2a0e0b072fd6483bfab8347b59ccf817bc83600000000000000000000000000000000000000000000003635c9adc5dea00000",
        "nonce": "0x11d",
        "chainId": "0x8f"
      },
      "additionalContracts": [],
      "isFixedGasLimit": false
    },
    {
      "hash": "0x47298bbee2075d48dca440ed2a741515de3a205349bfa9b67e7c165fd68d9403",
      "transactionType": "CALL",
      "contractName": null,
      "contractAddress": "0x04d2a0e0b072fd6483bfab8347b59ccf817bc836",
      "function": "notifyRewardAmount(address,uint256)",
      "arguments": [
        "0xD7102922c5Cae1BF165f708dB5b056F48A4220DD",
        "1000000000000000000000"
      ],
      "transaction": {
        "from": "0xa031f11d7cdf039eef0e73e47bd5b487f3659b65",
        "to": "0x04d2a0e0b072fd6483bfab8347b59ccf817bc836",
        "gas": "0xceedc",
        "value": "0x0",
        "input": "0xb66503cf000000000000000000000000d7102922c5cae1bf165f708db5b056f48a4220dd00000000000000000000000000000000000000000000003635c9adc5dea00000",
        "nonce": "0x11e",
        "chainId": "0x8f"
      },
      "additionalContracts": [],
      "isFixedGasLimit": false
    }
  ],
  "receipts": [
    {
      "status": "0x1",
      "cumulativeGasUsed": "0x896fea",
      "logs": [
        {
          "address": "0x9ef4b7e09c0ee4a777c1d129afac10bcf889e4e6",
          "topics": [
            "0x8c5be1e5ebec7d5bd14f71427d1e84f3dd0314c0f7b2291e5b200ac8c7c3b925",
            "0x000000000000000000000000a031f11d7cdf039eef0e73e47bd5b487f3659b65",
            "0x00000000000000000000000004d2a0e0b072fd6483bfab8347b59ccf817bc836"
          ],
          "data": "0x00000000000000000000000000000000000000000000003635c9adc5dea00000",
          "blockHash": "0xc454574f34cc4a28651e9761ee1a6762dc3aca7bebb4e4e9361246d368466ed5",
          "blockNumber": "0x4e8b5d5",
          "blockTimestamp": "0x6a358837",
          "transactionHash": "0x47298bbee2075d48dca440ed2a741515de3a205349bfa9b67e7c165fd68d9403",
          "transactionIndex": "0xa",
          "logIndex": "0x4c",
          "removed": false
        }
      ],
      "logsBloom": "0x00000000000000000000000000000000000000000000000000000000000000000000000001000000000000000000000000000000000000000000000000200000000000000000000000000000000000000000000000000000000000000020000000000000000000000000400000000000000000000800000000000000000000000000000000000000000000800000000000400000000000000000000000002000020000000000000000000000000000000000000000000000000000000000000000000000002000000000000000000000000000000000000000000000000000000010000000000000000000000000000000000000000000000000080000000000",
      "type": "0x2",
      "transactionHash": "0x47298bbee2075d48dca440ed2a741515de3a205349bfa9b67e7c165fd68d9403",
      "transactionIndex": "0xa",
      "blockHash": "0xc454574f34cc4a28651e9761ee1a6762dc3aca7bebb4e4e9361246d368466ed5",
      "blockNumber": "0x4e8b5d5",
      "gasUsed": "0x3cf82",
      "effectiveGasPrice": "0x17bfac7c00",
      "from": "0xa031f11d7cdf039eef0e73e47bd5b487f3659b65",
      "to": "0x9ef4b7e09c0ee4a777c1d129afac10bcf889e4e6",
      "contractAddress": null
    },
    {
      "status": "0x1",
      "cumulativeGasUsed": "0x965ec6",
      "logs": [
        {
          "address": "0x9ef4b7e09c0ee4a777c1d129afac10bcf889e4e6",
          "topics": [
            "0xddf252ad1be2c89b69c2b068fc378daa952ba7f163c4a11628f55a4df523b3ef",
            "0x000000000000000000000000a031f11d7cdf039eef0e73e47bd5b487f3659b65",
            "0x00000000000000000000000004d2a0e0b072fd6483bfab8347b59ccf817bc836"
          ],
          "data": "0x00000000000000000000000000000000000000000000003635c9adc5dea00000",
          "blockHash": "0xc454574f34cc4a28651e9761ee1a6762dc3aca7bebb4e4e9361246d368466ed5",
          "blockNumber": "0x4e8b5d5",
          "blockTimestamp": "0x6a358837",
          "transactionHash": "0xa8a38b9bcf438bbc41d176ebcd604428214945d641a91fee8a4f5c26956d08d2",
          "transactionIndex": "0xb",
          "logIndex": "0x4d",
          "removed": false
        },
        {
          "address": "0x9ef4b7e09c0ee4a777c1d129afac10bcf889e4e6",
          "topics": [
            "0x8c5be1e5ebec7d5bd14f71427d1e84f3dd0314c0f7b2291e5b200ac8c7c3b925",
            "0x00000000000000000000000004d2a0e0b072fd6483bfab8347b59ccf817bc836",
            "0x000000000000000000000000d7102922c5cae1bf165f708db5b056f48a4220dd"
          ],
          "data": "0x00000000000000000000000000000000000000000000003635c9adc5dea00000",
          "blockHash": "0xc454574f34cc4a28651e9761ee1a6762dc3aca7bebb4e4e9361246d368466ed5",
          "blockNumber": "0x4e8b5d5",
          "blockTimestamp": "0x6a358837",
          "transactionHash": "0xa8a38b9bcf438bbc41d176ebcd604428214945d641a91fee8a4f5c26956d08d2",
          "transactionIndex": "0xb",
          "logIndex": "0x4e",
          "removed": false
        },
        {
          "address": "0x9ef4b7e09c0ee4a777c1d129afac10bcf889e4e6",
          "topics": [
            "0xddf252ad1be2c89b69c2b068fc378daa952ba7f163c4a11628f55a4df523b3ef",
            "0x00000000000000000000000004d2a0e0b072fd6483bfab8347b59ccf817bc836",
            "0x000000000000000000000000d7102922c5cae1bf165f708db5b056f48a4220dd"
          ],
          "data": "0x00000000000000000000000000000000000000000000003635c9adc5dea00000",
          "blockHash": "0xc454574f34cc4a28651e9761ee1a6762dc3aca7bebb4e4e9361246d368466ed5",
          "blockNumber": "0x4e8b5d5",
          "blockTimestamp": "0x6a358837",
          "transactionHash": "0xa8a38b9bcf438bbc41d176ebcd604428214945d641a91fee8a4f5c26956d08d2",
          "transactionIndex": "0xb",
          "logIndex": "0x4f",
          "removed": false
        },
        {
          "address": "0xd7102922c5cae1bf165f708db5b056f48a4220dd",
          "topics": [
            "0x095667752957714306e1a6ad83495404412df6fdb932fca6dc849a7ee910d4c1",
            "0x00000000000000000000000004d2a0e0b072fd6483bfab8347b59ccf817bc836"
          ],
          "data": "0x00000000000000000000000000000000000000000000003635c9adc5dea00000",
          "blockHash": "0xc454574f34cc4a28651e9761ee1a6762dc3aca7bebb4e4e9361246d368466ed5",
          "blockNumber": "0x4e8b5d5",
          "blockTimestamp": "0x6a358837",
          "transactionHash": "0xa8a38b9bcf438bbc41d176ebcd604428214945d641a91fee8a4f5c26956d08d2",
          "transactionIndex": "0xb",
          "logIndex": "0x50",
          "removed": false
        }
      ],
      "logsBloom": "0x00000000000000000000000000000000000000000000000000000008000000000000000001000000000000000000000000000000000000000000000000200000000000400000000008000008000000000000000000000000000000000020000000000000000000000000400000000000000000000800000000000010000000000000000000000200000000800000000000400000000000000000000000002000020000000000000000000000000004000000000000000000000000000000000000000002006000000000000001000000000000000000000000000000200000000110000000000000000000000000000000000000000000000000080000000000",
      "type": "0x2",
      "transactionHash": "0xa8a38b9bcf438bbc41d176ebcd604428214945d641a91fee8a4f5c26956d08d2",
      "transactionIndex": "0xb",
      "blockHash": "0xc454574f34cc4a28651e9761ee1a6762dc3aca7bebb4e4e9361246d368466ed5",
      "blockNumber": "0x4e8b5d5",
      "gasUsed": "0xceedc",
      "effectiveGasPrice": "0x17bfac7c00",
      "from": "0xa031f11d7cdf039eef0e73e47bd5b487f3659b65",
      "to": "0x04d2a0e0b072fd6483bfab8347b59ccf817bc836",
      "contractAddress": null
    }
  ],
  "libraries": [],
  "pending": [],
  "returns": {},
  "timestamp": 1781893178820,
  "chain": 143,
  "commit": "e4b9980"
}