{
  "transactions": [
    {
      "hash": "0x9f60245bafb3fbd1d16f1eade2551ec0d05ffdeb869b92f2eb784315171edf58",
      "transactionType": "CALL",
      "contractName": null,
      "contractAddress": "0xa1b3abf2bf88c80d3014e0b61d8042103c4fd19d",
      "function": "approve(address,uint256)",
      "arguments": [
        "0xeab7cA8ab4071eaA912650f8d2D7Ed4697016736",
        "1000000000000000000000"
      ],
      "transaction": {
        "from": "0x10663338859fb17e3a608384f338a97a2f2d5370",
        "to": "0xa1b3abf2bf88c80d3014e0b61d8042103c4fd19d",
        "gas": "0x974a",
        "value": "0x0",
        "input": "0x095ea7b3000000000000000000000000eab7ca8ab4071eaa912650f8d2d7ed469701673600000000000000000000000000000000000000000000003635c9adc5dea00000",
        "nonce": "0x4a",
        "chainId": "0x8f"
      },
      "additionalContracts": [],
      "isFixedGasLimit": false
    },
    {
      "hash": "0x0ace6c7e5e01d6c33de51a6becef14cef6a4e92043ccea26f0835226ed31922b",
      "transactionType": "CALL",
      "contractName": null,
      "contractAddress": "0xeab7ca8ab4071eaa912650f8d2d7ed4697016736",
      "function": "deposit(uint256)",
      "arguments": [
        "1000000000000000000000"
      ],
      "transaction": {
        "from": "0x10663338859fb17e3a608384f338a97a2f2d5370",
        "to": "0xeab7ca8ab4071eaa912650f8d2d7ed4697016736",
        "gas": "0x29c78",
        "value": "0x0",
        "input": "0xb6b55f2500000000000000000000000000000000000000000000003635c9adc5dea00000",
        "nonce": "0x4b",
        "chainId": "0x8f"
      },
      "additionalContracts": [],
      "isFixedGasLimit": false
    }
  ],
  "receipts": [
    {
      "status": "0x1",
      "cumulativeGasUsed": "0x426372",
      "logs": [
        {
          "address": "0xa1b3abf2bf88c80d3014e0b61d8042103c4fd19d",
          "topics": [
            "0x8c5be1e5ebec7d5bd14f71427d1e84f3dd0314c0f7b2291e5b200ac8c7c3b925",
            "0x00000000000000000000000010663338859fb17e3a608384f338a97a2f2d5370",
            "0x000000000000000000000000eab7ca8ab4071eaa912650f8d2d7ed4697016736"
          ],
          "data": "0x00000000000000000000000000000000000000000000003635c9adc5dea00000",
          "blockHash": "0x4e4f5c07eb6602f2ebd244bb76251baff9fe17c37dee01f0e0bb07ff98896b9a",
          "blockNumber": "0x4f265c9",
          "blockTimestamp": "0x6a396a63",
          "transactionHash": "0x9f60245bafb3fbd1d16f1eade2551ec0d05ffdeb869b92f2eb784315171edf58",
          "transactionIndex": "0x7",
          "logIndex": "0x2b",
          "removed": false
        }
      ],
      "logsBloom": "0x00000000000000000000000000000000000000000000000000000100000000000000000000000000000000000000000000000000000000000000000008200000000000000000000000000000000000000000000000000000000000000000000000000000000000000000002000000600000000000000000000000000000000000000000000000000000000000000000000000000000000000000000000000000020000000000000000000000000000000000000000000000000000000000000000000000000000000000000000000000000000000000002000000000000000000010000000004000200000000000000000000000000080000000000000000000",
      "type": "0x2",
      "transactionHash": "0x9f60245bafb3fbd1d16f1eade2551ec0d05ffdeb869b92f2eb784315171edf58",
      "transactionIndex": "0x7",
      "blockHash": "0x4e4f5c07eb6602f2ebd244bb76251baff9fe17c37dee01f0e0bb07ff98896b9a",
      "blockNumber": "0x4f265c9",
      "gasUsed": "0x974a",
      "effectiveGasPrice": "0x17bfac7c00",
      "from": "0x10663338859fb17e3a608384f338a97a2f2d5370",
      "to": "0xa1b3abf2bf88c80d3014e0b61d8042103c4fd19d",
      "contractAddress": null
    }
  ],
  "libraries": [],
  "pending": [],
  "returns": {},
  "timestamp": 1782147684586,
  "chain": 143,
  "commit": "e4b9980"
}