{
  "transactions": [
    {
      "hash": "0xa9154f33e88882ed03b23d3e27869298f2a8d19dff3637e7b3518ebb68fc9227",
      "transactionType": "CALL",
      "contractName": null,
      "contractAddress": "0x9ef4b7e09c0ee4a777c1d129afac10bcf889e4e6",
      "function": "approve(address,uint256)",
      "arguments": [
        "0x04D2a0E0b072FD6483bfAb8347B59ccF817Bc836",
        "2000000000000000000000"
      ],
      "transaction": {
        "from": "0xa031f11d7cdf039eef0e73e47bd5b487f3659b65",
        "to": "0x9ef4b7e09c0ee4a777c1d129afac10bcf889e4e6",
        "gas": "0x3cf82",
        "value": "0x0",
        "input": "0x095ea7b300000000000000000000000004d2a0e0b072fd6483bfab8347b59ccf817bc83600000000000000000000000000000000000000000000006c6b935b8bbd400000",
        "nonce": "0x128",
        "chainId": "0x8f"
      },
      "additionalContracts": [],
      "isFixedGasLimit": false
    },
    {
      "hash": "0xf094228eddd5c0f8615c2a5c9ef72bf60f92766ff28efb4f01343c10b87688da",
      "transactionType": "CALL",
      "contractName": null,
      "contractAddress": "0x04d2a0e0b072fd6483bfab8347b59ccf817bc836",
      "function": "notifyRewardAmount(address,uint256)",
      "arguments": [
        "0xD7102922c5Cae1BF165f708dB5b056F48A4220DD",
        "1000000000000000000000"
      ],
      "transaction": {
        "from": "0xa031f11d7cdf039eef0e73e47bd5b487f3659b65",
        "to": "0x04d2a0e0b072fd6483bfab8347b59ccf817bc836",
        "gas": "0xceedc",
        "value": "0x0",
        "input": "0xb66503cf000000000000000000000000d7102922c5cae1bf165f708db5b056f48a4220dd00000000000000000000000000000000000000000000003635c9adc5dea00000",
        "nonce": "0x129",
        "chainId": "0x8f"
      },
      "additionalContracts": [],
      "isFixedGasLimit": false
    },
    {
      "hash": "0x3d83e283e9751897e14f339ab698ad4a0837e974f7ca6e51e96b1783e7b3b93f",
      "transactionType": "CALL",
      "contractName": null,
      "contractAddress": "0x04d2a0e0b072fd6483bfab8347b59ccf817bc836",
      "function": "notifyRewardAmount(address,uint256)",
      "arguments": [
        "0xeab7cA8ab4071eaA912650f8d2D7Ed4697016736",
        "1000000000000000000000"
      ],
      "transaction": {
        "from": "0xa031f11d7cdf039eef0e73e47bd5b487f3659b65",
        "to": "0x04d2a0e0b072fd6483bfab8347b59ccf817bc836",
        "gas": "0xebc08",
        "value": "0x0",
        "input": "0xb66503cf000000000000000000000000eab7ca8ab4071eaa912650f8d2d7ed469701673600000000000000000000000000000000000000000000003635c9adc5dea00000",
        "nonce": "0x12a",
        "chainId": "0x8f"
      },
      "additionalContracts": [],
      "isFixedGasLimit": false
    }
  ],
  "receipts": [
    {
      "status": "0x1",
      "cumulativeGasUsed": "0x10a5f63",
      "logs": [
        {
          "address": "0x9ef4b7e09c0ee4a777c1d129afac10bcf889e4e6",
          "topics": [
            "0x8c5be1e5ebec7d5bd14f71427d1e84f3dd0314c0f7b2291e5b200ac8c7c3b925",
            "0x000000000000000000000000a031f11d7cdf039eef0e73e47bd5b487f3659b65",
            "0x00000000000000000000000004d2a0e0b072fd6483bfab8347b59ccf817bc836"
          ],
          "data": "0x00000000000000000000000000000000000000000000006c6b935b8bbd400000",
          "blockHash": "0xee67a9ad7fa0ce091f1102f1dec9ebde561e6d15311915f617d36d49c98beef0",
          "blockNumber": "0x4f275f3",
          "blockTimestamp": "0x6a3970e1",
          "transactionHash": "0xa9154f33e88882ed03b23d3e27869298f2a8d19dff3637e7b3518ebb68fc9227",
          "transactionIndex": "0x10",
          "logIndex": "0x61",
          "removed": false
        }
      ],
      "logsBloom": "0x00000000000000000000000000000000000000000000000000000000000000000000000001000000000000000000000000000000000000000000000000200000000000000000000000000000000000000000000000000000000000000020000000000000000000000000400000000000000000000800000000000000000000000000000000000000000000800000000000400000000000000000000000002000020000000000000000000000000000000000000000000000000000000000000000000000002000000000000000000000000000000000000000000000000000000010000000000000000000000000000000000000000000000000080000000000",
      "type": "0x2",
      "transactionHash": "0xa9154f33e88882ed03b23d3e27869298f2a8d19dff3637e7b3518ebb68fc9227",
      "transactionIndex": "0x10",
      "blockHash": "0xee67a9ad7fa0ce091f1102f1dec9ebde561e6d15311915f617d36d49c98beef0",
      "blockNumber": "0x4f275f3",
      "gasUsed": "0x3cf82",
      "effectiveGasPrice": "0x17bfac7c00",
      "from": "0xa031f11d7cdf039eef0e73e47bd5b487f3659b65",
      "to": "0x9ef4b7e09c0ee4a777c1d129afac10bcf889e4e6",
      "contractAddress": null
    },
    {
      "status": "0x1",
      "cumulativeGasUsed": "0x1174e3f",
      "logs": [
        {
          "address": "0x9ef4b7e09c0ee4a777c1d129afac10bcf889e4e6",
          "topics": [
            "0xddf252ad1be2c89b69c2b068fc378daa952ba7f163c4a11628f55a4df523b3ef",
            "0x000000000000000000000000a031f11d7cdf039eef0e73e47bd5b487f3659b65",
            "0x00000000000000000000000004d2a0e0b072fd6483bfab8347b59ccf817bc836"
          ],
          "data": "0x00000000000000000000000000000000000000000000003635c9adc5dea00000",
          "blockHash": "0xee67a9ad7fa0ce091f1102f1dec9ebde561e6d15311915f617d36d49c98beef0",
          "blockNumber": "0x4f275f3",
          "blockTimestamp": "0x6a3970e1",
          "transactionHash": "0xf094228eddd5c0f8615c2a5c9ef72bf60f92766ff28efb4f01343c10b87688da",
          "transactionIndex": "0x11",
          "logIndex": "0x62",
          "removed": false
        },
        {
          "address": "0x9ef4b7e09c0ee4a777c1d129afac10bcf889e4e6",
          "topics": [
            "0x8c5be1e5ebec7d5bd14f71427d1e84f3dd0314c0f7b2291e5b200ac8c7c3b925",
            "0x00000000000000000000000004d2a0e0b072fd6483bfab8347b59ccf817bc836",
            "0x000000000000000000000000d7102922c5cae1bf165f708db5b056f48a4220dd"
          ],
          "data": "0x00000000000000000000000000000000000000000000003635c9adc5dea00000",
          "blockHash": "0xee67a9ad7fa0ce091f1102f1dec9ebde561e6d15311915f617d36d49c98beef0",
          "blockNumber": "0x4f275f3",
          "blockTimestamp": "0x6a3970e1",
          "transactionHash": "0xf094228eddd5c0f8615c2a5c9ef72bf60f92766ff28efb4f01343c10b87688da",
          "transactionIndex": "0x11",
          "logIndex": "0x63",
          "removed": false
        },
        {
          "address": "0x9ef4b7e09c0ee4a777c1d129afac10bcf889e4e6",
          "topics": [
            "0xddf252ad1be2c89b69c2b068fc378daa952ba7f163c4a11628f55a4df523b3ef",
            "0x00000000000000000000000004d2a0e0b072fd6483bfab8347b59ccf817bc836",
            "0x000000000000000000000000d7102922c5cae1bf165f708db5b056f48a4220dd"
          ],
          "data": "0x00000000000000000000000000000000000000000000003635c9adc5dea00000",
          "blockHash": "0xee67a9ad7fa0ce091f1102f1dec9ebde561e6d15311915f617d36d49c98beef0",
          "blockNumber": "0x4f275f3",
          "blockTimestamp": "0x6a3970e1",
          "transactionHash": "0xf094228eddd5c0f8615c2a5c9ef72bf60f92766ff28efb4f01343c10b87688da",
          "transactionIndex": "0x11",
          "logIndex": "0x64",
          "removed": false
        },
        {
          "address": "0xd7102922c5cae1bf165f708db5b056f48a4220dd",
          "topics": [
            "0x095667752957714306e1a6ad83495404412df6fdb932fca6dc849a7ee910d4c1",
            "0x00000000000000000000000004d2a0e0b072fd6483bfab8347b59ccf817bc836"
          ],
          "data": "0x00000000000000000000000000000000000000000000003635c9adc5dea00000",
          "blockHash": "0xee67a9ad7fa0ce091f1102f1dec9ebde561e6d15311915f617d36d49c98beef0",
          "blockNumber": "0x4f275f3",
          "blockTimestamp": "0x6a3970e1",
          "transactionHash": "0xf094228eddd5c0f8615c2a5c9ef72bf60f92766ff28efb4f01343c10b87688da",
          "transactionIndex": "0x11",
          "logIndex": "0x65",
          "removed": false
        }
      ],
      "logsBloom": "0x00000000000000000000000000000000000000000000000000000008000000000000000001000000000000000000000000000000000000000000000000200000000000400000000008000008000000000000000000000000000000000020000000000000000000000000400000000000000000000800000000000010000000000000000000000200000000800000000000400000000000000000000000002000020000000000000000000000000004000000000000000000000000000000000000000002006000000000000001000000000000000000000000000000200000000110000000000000000000000000000000000000000000000000080000000000",
      "type": "0x2",
      "transactionHash": "0xf094228eddd5c0f8615c2a5c9ef72bf60f92766ff28efb4f01343c10b87688da",
      "transactionIndex": "0x11",
      "blockHash": "0xee67a9ad7fa0ce091f1102f1dec9ebde561e6d15311915f617d36d49c98beef0",
      "blockNumber": "0x4f275f3",
      "gasUsed": "0xceedc",
      "effectiveGasPrice": "0x17bfac7c00",
      "from": "0xa031f11d7cdf039eef0e73e47bd5b487f3659b65",
      "to": "0x04d2a0e0b072fd6483bfab8347b59ccf817bc836",
      "contractAddress": null
    },
    {
      "status": "0x1",
      "cumulativeGasUsed": "0x1260a47",
      "logs": [
        {
          "address": "0x9ef4b7e09c0ee4a777c1d129afac10bcf889e4e6",
          "topics": [
            "0xddf252ad1be2c89b69c2b068fc378daa952ba7f163c4a11628f55a4df523b3ef",
            "0x000000000000000000000000a031f11d7cdf039eef0e73e47bd5b487f3659b65",
            "0x00000000000000000000000004d2a0e0b072fd6483bfab8347b59ccf817bc836"
          ],
          "data": "0x00000000000000000000000000000000000000000000003635c9adc5dea00000",
          "blockHash": "0xee67a9ad7fa0ce091f1102f1dec9ebde561e6d15311915f617d36d49c98beef0",
          "blockNumber": "0x4f275f3",
          "blockTimestamp": "0x6a3970e1",
          "transactionHash": "0x3d83e283e9751897e14f339ab698ad4a0837e974f7ca6e51e96b1783e7b3b93f",
          "transactionIndex": "0x12",
          "logIndex": "0x66",
          "removed": false
        },
        {
          "address": "0x9ef4b7e09c0ee4a777c1d129afac10bcf889e4e6",
          "topics": [
            "0x8c5be1e5ebec7d5bd14f71427d1e84f3dd0314c0f7b2291e5b200ac8c7c3b925",
            "0x00000000000000000000000004d2a0e0b072fd6483bfab8347b59ccf817bc836",
            "0x000000000000000000000000eab7ca8ab4071eaa912650f8d2d7ed4697016736"
          ],
          "data": "0x00000000000000000000000000000000000000000000003635c9adc5dea00000",
          "blockHash": "0xee67a9ad7fa0ce091f1102f1dec9ebde561e6d15311915f617d36d49c98beef0",
          "blockNumber": "0x4f275f3",
          "blockTimestamp": "0x6a3970e1",
          "transactionHash": "0x3d83e283e9751897e14f339ab698ad4a0837e974f7ca6e51e96b1783e7b3b93f",
          "transactionIndex": "0x12",
          "logIndex": "0x67",
          "removed": false
        },
        {
          "address": "0x9ef4b7e09c0ee4a777c1d129afac10bcf889e4e6",
          "topics": [
            "0xddf252ad1be2c89b69c2b068fc378daa952ba7f163c4a11628f55a4df523b3ef",
            "0x00000000000000000000000004d2a0e0b072fd6483bfab8347b59ccf817bc836",
            "0x000000000000000000000000eab7ca8ab4071eaa912650f8d2d7ed4697016736"
          ],
          "data": "0x00000000000000000000000000000000000000000000003635c9adc5dea00000",
          "blockHash": "0xee67a9ad7fa0ce091f1102f1dec9ebde561e6d15311915f617d36d49c98beef0",
          "blockNumber": "0x4f275f3",
          "blockTimestamp": "0x6a3970e1",
          "transactionHash": "0x3d83e283e9751897e14f339ab698ad4a0837e974f7ca6e51e96b1783e7b3b93f",
          "transactionIndex": "0x12",
          "logIndex": "0x68",
          "removed": false
        },
        {
          "address": "0xeab7ca8ab4071eaa912650f8d2d7ed4697016736",
          "topics": [
            "0x095667752957714306e1a6ad83495404412df6fdb932fca6dc849a7ee910d4c1",
            "0x00000000000000000000000004d2a0e0b072fd6483bfab8347b59ccf817bc836"
          ],
          "data": "0x00000000000000000000000000000000000000000000003635c9adc5dea00000",
          "blockHash": "0xee67a9ad7fa0ce091f1102f1dec9ebde561e6d15311915f617d36d49c98beef0",
          "blockNumber": "0x4f275f3",
          "blockTimestamp": "0x6a3970e1",
          "transactionHash": "0x3d83e283e9751897e14f339ab698ad4a0837e974f7ca6e51e96b1783e7b3b93f",
          "transactionIndex": "0x12",
          "logIndex": "0x69",
          "removed": false
        }
      ],
      "logsBloom": "0x00000000000020000000000000000000000000000000000000000000000000000000000001000000000000000000000000000000000000000000000000200000000000000000000000000008000000000000000000000000000000000020000000000000000000000000400000000400000000000800000000000010000000000000000000000200000000800000000000400000000000000000000000002000020000000000000000000000000000000000000000000000000000000000000000000002006000000000000000000000000000000000002000000000200000000010000000100000000000000000000000000000000080000000080000000200",
      "type": "0x2",
      "transactionHash": "0x3d83e283e9751897e14f339ab698ad4a0837e974f7ca6e51e96b1783e7b3b93f",
      "transactionIndex": "0x12",
      "blockHash": "0xee67a9ad7fa0ce091f1102f1dec9ebde561e6d15311915f617d36d49c98beef0",
      "blockNumber": "0x4f275f3",
      "gasUsed": "0xebc08",
      "effectiveGasPrice": "0x17bfac7c00",
      "from": "0xa031f11d7cdf039eef0e73e47bd5b487f3659b65",
      "to": "0x04d2a0e0b072fd6483bfab8347b59ccf817bc836",
      "contractAddress": null
    }
  ],
  "libraries": [],
  "pending": [],
  "returns": {},
  "timestamp": 1782149346611,
  "chain": 143,
  "commit": "e4b9980"
}