{
  "transactions": [
    {
      "hash": "0xaf010ee07872f4f1b792d5b2037734b3188ede6856cd366f4f5c3f42815e3890",
      "transactionType": "CALL",
      "contractName": null,
      "contractAddress": "0xa1b3abf2bf88c80d3014e0b61d8042103c4fd19d",
      "function": "approve(address,uint256)",
      "arguments": [
        "0xeab7cA8ab4071eaA912650f8d2D7Ed4697016736",
        "1000000000000000000000"
      ],
      "transaction": {
        "from": "0x10663338859fb17e3a608384f338a97a2f2d5370",
        "to": "0xa1b3abf2bf88c80d3014e0b61d8042103c4fd19d",
        "gas": "0x245e5",
        "value": "0x0",
        "input": "0x095ea7b3000000000000000000000000eab7ca8ab4071eaa912650f8d2d7ed469701673600000000000000000000000000000000000000000000003635c9adc5dea00000",
        "nonce": "0x4c",
        "chainId": "0x8f"
      },
      "additionalContracts": [],
      "isFixedGasLimit": false
    },
    {
      "hash": "0x043f6dc6c5ee6b4a3123ca612be735d48d81db1513525828eb2d9e9cb096ce08",
      "transactionType": "CALL",
      "contractName": null,
      "contractAddress": "0xeab7ca8ab4071eaa912650f8d2d7ed4697016736",
      "function": "deposit(uint256)",
      "arguments": [
        "1000000000000000000000"
      ],
      "transaction": {
        "from": "0x10663338859fb17e3a608384f338a97a2f2d5370",
        "to": "0xeab7ca8ab4071eaa912650f8d2d7ed4697016736",
        "gas": "0xb3c81",
        "value": "0x0",
        "input": "0xb6b55f2500000000000000000000000000000000000000000000003635c9adc5dea00000",
        "nonce": "0x4d",
        "chainId": "0x8f"
      },
      "additionalContracts": [],
      "isFixedGasLimit": false
    }
  ],
  "receipts": [
    {
      "status": "0x1",
      "cumulativeGasUsed": "0x6e600a",
      "logs": [
        {
          "address": "0xa1b3abf2bf88c80d3014e0b61d8042103c4fd19d",
          "topics": [
            "0x8c5be1e5ebec7d5bd14f71427d1e84f3dd0314c0f7b2291e5b200ac8c7c3b925",
            "0x00000000000000000000000010663338859fb17e3a608384f338a97a2f2d5370",
            "0x000000000000000000000000eab7ca8ab4071eaa912650f8d2d7ed4697016736"
          ],
          "data": "0x00000000000000000000000000000000000000000000003635c9adc5dea00000",
          "blockHash": "0x059ff40421002a35b6d8ebd5359397bd735a02bab57f759980e931bd1d7c4a97",
          "blockNumber": "0x4f2785e",
          "blockTimestamp": "0x6a3971d9",
          "transactionHash": "0xaf010ee07872f4f1b792d5b2037734b3188ede6856cd366f4f5c3f42815e3890",
          "transactionIndex": "0xf",
          "logIndex": "0x4e",
          "removed": false
        }
      ],
      "logsBloom": "0x00000000000000000000000000000000000000000000000000000100000000000000000000000000000000000000000000000000000000000000000008200000000000000000000000000000000000000000000000000000000000000000000000000000000000000000002000000600000000000000000000000000000000000000000000000000000000000000000000000000000000000000000000000000020000000000000000000000000000000000000000000000000000000000000000000000000000000000000000000000000000000000002000000000000000000010000000004000200000000000000000000000000080000000000000000000",
      "type": "0x2",
      "transactionHash": "0xaf010ee07872f4f1b792d5b2037734b3188ede6856cd366f4f5c3f42815e3890",
      "transactionIndex": "0xf",
      "blockHash": "0x059ff40421002a35b6d8ebd5359397bd735a02bab57f759980e931bd1d7c4a97",
      "blockNumber": "0x4f2785e",
      "gasUsed": "0x245e5",
      "effectiveGasPrice": "0x17bfac7c00",
      "from": "0x10663338859fb17e3a608384f338a97a2f2d5370",
      "to": "0xa1b3abf2bf88c80d3014e0b61d8042103c4fd19d",
      "contractAddress": null
    },
    {
      "status": "0x1",
      "cumulativeGasUsed": "0x799c8b",
      "logs": [
        {
          "address": "0xa1b3abf2bf88c80d3014e0b61d8042103c4fd19d",
          "topics": [
            "0xddf252ad1be2c89b69c2b068fc378daa952ba7f163c4a11628f55a4df523b3ef",
            "0x00000000000000000000000010663338859fb17e3a608384f338a97a2f2d5370",
            "0x000000000000000000000000eab7ca8ab4071eaa912650f8d2d7ed4697016736"
          ],
          "data": "0x00000000000000000000000000000000000000000000003635c9adc5dea00000",
          "blockHash": "0x059ff40421002a35b6d8ebd5359397bd735a02bab57f759980e931bd1d7c4a97",
          "blockNumber": "0x4f2785e",
          "blockTimestamp": "0x6a3971d9",
          "transactionHash": "0x043f6dc6c5ee6b4a3123ca612be735d48d81db1513525828eb2d9e9cb096ce08",
          "transactionIndex": "0x10",
          "logIndex": "0x4f",
          "removed": false
        },
        {
          "address": "0xeab7ca8ab4071eaa912650f8d2d7ed4697016736",
          "topics": [
            "0x5548c837ab068cf56a2c2479df0882a4922fd203edb7517321831d95078c5f62",
            "0x00000000000000000000000010663338859fb17e3a608384f338a97a2f2d5370",
            "0x00000000000000000000000010663338859fb17e3a608384f338a97a2f2d5370"
          ],
          "data": "0x00000000000000000000000000000000000000000000003635c9adc5dea00000",
          "blockHash": "0x059ff40421002a35b6d8ebd5359397bd735a02bab57f759980e931bd1d7c4a97",
          "blockNumber": "0x4f2785e",
          "blockTimestamp": "0x6a3971d9",
          "transactionHash": "0x043f6dc6c5ee6b4a3123ca612be735d48d81db1513525828eb2d9e9cb096ce08",
          "transactionIndex": "0x10",
          "logIndex": "0x50",
          "removed": false
        }
      ],
      "logsBloom": "0x00000000000020000000000000000000000000000000000000000100000000000000000000000000000000000000000000000000000002000000000048000000000000000008000000000008000000000000000000000000000000000000000000000000000000000000002000000600000000000000000000000010000000000000000000000000000000000000000000000000000000000000000000000000000000000000000000000000000000000000000000000000000000000000000000000002000000000000000000000000000000000000002000000000000000000000000000104000200000000000000000000000000080000000000000000200",
      "type": "0x2",
      "transactionHash": "0x043f6dc6c5ee6b4a3123ca612be735d48d81db1513525828eb2d9e9cb096ce08",
      "transactionIndex": "0x10",
      "blockHash": "0x059ff40421002a35b6d8ebd5359397bd735a02bab57f759980e931bd1d7c4a97",
      "blockNumber": "0x4f2785e",
      "gasUsed": "0xb3c81",
      "effectiveGasPrice": "0x17bfac7c00",
      "from": "0x10663338859fb17e3a608384f338a97a2f2d5370",
      "to": "0xeab7ca8ab4071eaa912650f8d2d7ed4697016736",
      "contractAddress": null
    }
  ],
  "libraries": [],
  "pending": [],
  "returns": {},
  "timestamp": 1782149594822,
  "chain": 143,
  "commit": "e4b9980"
}