{
  "transactions": [
    {
      "hash": "0xc7d32cf4446b9f56f3dedc57423f6c609edc4f4584a1ef4a6928924c6237e1ad",
      "transactionType": "CALL",
      "contractName": null,
      "contractAddress": "0xa1b3abf2bf88c80d3014e0b61d8042103c4fd19d",
      "function": "approve(address,uint256)",
      "arguments": [
        "0xeab7cA8ab4071eaA912650f8d2D7Ed4697016736",
        "1000000000000000000000"
      ],
      "transaction": {
        "from": "0x10663338859fb17e3a608384f338a97a2f2d5370",
        "to": "0xa1b3abf2bf88c80d3014e0b61d8042103c4fd19d",
        "gas": "0x3c285",
        "value": "0x0",
        "input": "0x095ea7b3000000000000000000000000eab7ca8ab4071eaa912650f8d2d7ed469701673600000000000000000000000000000000000000000000003635c9adc5dea00000",
        "nonce": "0x4e",
        "chainId": "0x8f"
      },
      "additionalContracts": [],
      "isFixedGasLimit": false
    }
  ],
  "receipts": [
    {
      "status": "0x1",
      "cumulativeGasUsed": "0x4a2e0c",
      "logs": [
        {
          "address": "0xa1b3abf2bf88c80d3014e0b61d8042103c4fd19d",
          "topics": [
            "0x8c5be1e5ebec7d5bd14f71427d1e84f3dd0314c0f7b2291e5b200ac8c7c3b925",
            "0x00000000000000000000000010663338859fb17e3a608384f338a97a2f2d5370",
            "0x000000000000000000000000eab7ca8ab4071eaa912650f8d2d7ed4697016736"
          ],
          "data": "0x00000000000000000000000000000000000000000000003635c9adc5dea00000",
          "blockHash": "0x2d62497f54778ca108abf511c82cd778a3d637febf3f150bda70cb04e4cd16a4",
          "blockNumber": "0x4f618eb",
          "blockTimestamp": "0x6a3ae6b3",
          "transactionHash": "0xc7d32cf4446b9f56f3dedc57423f6c609edc4f4584a1ef4a6928924c6237e1ad",
          "transactionIndex": "0x8",
          "logIndex": "0x31",
          "removed": false
        }
      ],
      "logsBloom": "0x00000000000000000000000000000000000000000000000000000100000000000000000000000000000000000000000000000000000000000000000008200000000000000000000000000000000000000000000000000000000000000000000000000000000000000000002000000600000000000000000000000000000000000000000000000000000000000000000000000000000000000000000000000000020000000000000000000000000000000000000000000000000000000000000000000000000000000000000000000000000000000000002000000000000000000010000000004000200000000000000000000000000080000000000000000000",
      "type": "0x2",
      "transactionHash": "0xc7d32cf4446b9f56f3dedc57423f6c609edc4f4584a1ef4a6928924c6237e1ad",
      "transactionIndex": "0x8",
      "blockHash": "0x2d62497f54778ca108abf511c82cd778a3d637febf3f150bda70cb04e4cd16a4",
      "blockNumber": "0x4f618eb",
      "gasUsed": "0x3c285",
      "effectiveGasPrice": "0x17bfac7c00",
      "from": "0x10663338859fb17e3a608384f338a97a2f2d5370",
      "to": "0xa1b3abf2bf88c80d3014e0b61d8042103c4fd19d",
      "contractAddress": null
    }
  ],
  "libraries": [],
  "pending": [],
  "returns": {},
  "timestamp": 1782245044997,
  "chain": 143,
  "commit": "e4b9980"
}