{
  "transactions": [
    {
      "hash": "0xd774a27f77569e2399d542a43e8eb588d67fd5651b50389091218fb3c820b67e",
      "transactionType": "CALL",
      "contractName": null,
      "contractAddress": "0xa1b3abf2bf88c80d3014e0b61d8042103c4fd19d",
      "function": "approve(address,uint256)",
      "arguments": [
        "0xeab7cA8ab4071eaA912650f8d2D7Ed4697016736",
        "1000000000000000000000"
      ],
      "transaction": {
        "from": "0xa031f11d7cdf039eef0e73e47bd5b487f3659b65",
        "to": "0xa1b3abf2bf88c80d3014e0b61d8042103c4fd19d",
        "gas": "0x3c285",
        "value": "0x0",
        "input": "0x095ea7b3000000000000000000000000eab7ca8ab4071eaa912650f8d2d7ed469701673600000000000000000000000000000000000000000000003635c9adc5dea00000",
        "nonce": "0x123",
        "chainId": "0x8f"
      },
      "additionalContracts": [],
      "isFixedGasLimit": false
    },
    {
      "hash": "0x38a72ca460cbeebf2a2c75ade2aa0494e1b1478c6e02e976a3d552c3cf38db18",
      "transactionType": "CALL",
      "contractName": null,
      "contractAddress": "0xeab7ca8ab4071eaa912650f8d2d7ed4697016736",
      "function": "deposit(uint256)",
      "arguments": [
        "1000000000000000000000"
      ],
      "transaction": {
        "from": "0xa031f11d7cdf039eef0e73e47bd5b487f3659b65",
        "to": "0xeab7ca8ab4071eaa912650f8d2d7ed4697016736",
        "gas": "0xa0b09",
        "value": "0x0",
        "input": "0xb6b55f2500000000000000000000000000000000000000000000003635c9adc5dea00000",
        "nonce": "0x124",
        "chainId": "0x8f"
      },
      "additionalContracts": [],
      "isFixedGasLimit": false
    }
  ],
  "receipts": [
    {
      "status": "0x1",
      "cumulativeGasUsed": "0x668029",
      "logs": [
        {
          "address": "0xa1b3abf2bf88c80d3014e0b61d8042103c4fd19d",
          "topics": [
            "0x8c5be1e5ebec7d5bd14f71427d1e84f3dd0314c0f7b2291e5b200ac8c7c3b925",
            "0x000000000000000000000000a031f11d7cdf039eef0e73e47bd5b487f3659b65",
            "0x000000000000000000000000eab7ca8ab4071eaa912650f8d2d7ed4697016736"
          ],
          "data": "0x00000000000000000000000000000000000000000000003635c9adc5dea00000",
          "blockHash": "0x54978d351b67f38beee699f75d62780db4b1c9ffece33f3aadbd3a7b7c7d5032",
          "blockNumber": "0x4f26819",
          "blockTimestamp": "0x6a396b50",
          "transactionHash": "0xd774a27f77569e2399d542a43e8eb588d67fd5651b50389091218fb3c820b67e",
          "transactionIndex": "0x9",
          "logIndex": "0x3d",
          "removed": false
        }
      ],
      "logsBloom": "0x00000000000000000000000000000000000000000000000000000100000000000000000001000000000000000000000000000000000000000000000008200000000000000000000000000000000000000000000000000000000000000000000000000000000000000000002000000400000000000000000000000000000000000000000000000000000000800000000000400000000000000000000000000000020000000000000000000000000000000000000000000000000000000000000000000000000000000000000000000000000000000000002000000000000000000010000000000000000000000000000000000000000080000000000000000000",
      "type": "0x2",
      "transactionHash": "0xd774a27f77569e2399d542a43e8eb588d67fd5651b50389091218fb3c820b67e",
      "transactionIndex": "0x9",
      "blockHash": "0x54978d351b67f38beee699f75d62780db4b1c9ffece33f3aadbd3a7b7c7d5032",
      "blockNumber": "0x4f26819",
      "gasUsed": "0x3c285",
      "effectiveGasPrice": "0x17bfac7c00",
      "from": "0xa031f11d7cdf039eef0e73e47bd5b487f3659b65",
      "to": "0xa1b3abf2bf88c80d3014e0b61d8042103c4fd19d",
      "contractAddress": null
    },
    {
      "status": "0x1",
      "cumulativeGasUsed": "0x708b32",
      "logs": [
        {
          "address": "0xa1b3abf2bf88c80d3014e0b61d8042103c4fd19d",
          "topics": [
            "0xddf252ad1be2c89b69c2b068fc378daa952ba7f163c4a11628f55a4df523b3ef",
            "0x000000000000000000000000a031f11d7cdf039eef0e73e47bd5b487f3659b65",
            "0x000000000000000000000000eab7ca8ab4071eaa912650f8d2d7ed4697016736"
          ],
          "data": "0x00000000000000000000000000000000000000000000003635c9adc5dea00000",
          "blockHash": "0x54978d351b67f38beee699f75d62780db4b1c9ffece33f3aadbd3a7b7c7d5032",
          "blockNumber": "0x4f26819",
          "blockTimestamp": "0x6a396b50",
          "transactionHash": "0x38a72ca460cbeebf2a2c75ade2aa0494e1b1478c6e02e976a3d552c3cf38db18",
          "transactionIndex": "0xa",
          "logIndex": "0x3e",
          "removed": false
        },
        {
          "address": "0xeab7ca8ab4071eaa912650f8d2d7ed4697016736",
          "topics": [
            "0x5548c837ab068cf56a2c2479df0882a4922fd203edb7517321831d95078c5f62",
            "0x000000000000000000000000a031f11d7cdf039eef0e73e47bd5b487f3659b65",
            "0x000000000000000000000000a031f11d7cdf039eef0e73e47bd5b487f3659b65"
          ],
          "data": "0x00000000000000000000000000000000000000000000003635c9adc5dea00000",
          "blockHash": "0x54978d351b67f38beee699f75d62780db4b1c9ffece33f3aadbd3a7b7c7d5032",
          "blockNumber": "0x4f26819",
          "blockTimestamp": "0x6a396b50",
          "transactionHash": "0x38a72ca460cbeebf2a2c75ade2aa0494e1b1478c6e02e976a3d552c3cf38db18",
          "transactionIndex": "0xa",
          "logIndex": "0x3f",
          "removed": false
        }
      ],
      "logsBloom": "0x00000000000020000000000000000000000000000000000000000100000000000000000001000000000000000000000000000000000002000000000048000000000000000008000000000008000000000000000000000000000000000000000000000000000000000000002000000400000000000000000000000010000000000000000000000000000000800000000000400000000000000000000000000000000000000000000000000000000000000000000000000000000000000000000000000002000000000000000000000000000000000000002000000000000000000000000000100000000000000000000000000000000080000000000000000200",
      "type": "0x2",
      "transactionHash": "0x38a72ca460cbeebf2a2c75ade2aa0494e1b1478c6e02e976a3d552c3cf38db18",
      "transactionIndex": "0xa",
      "blockHash": "0x54978d351b67f38beee699f75d62780db4b1c9ffece33f3aadbd3a7b7c7d5032",
      "blockNumber": "0x4f26819",
      "gasUsed": "0xa0b09",
      "effectiveGasPrice": "0x17bfac7c00",
      "from": "0xa031f11d7cdf039eef0e73e47bd5b487f3659b65",
      "to": "0xeab7ca8ab4071eaa912650f8d2d7ed4697016736",
      "contractAddress": null
    }
  ],
  "libraries": [],
  "pending": [],
  "returns": {},
  "timestamp": 1782147919805,
  "chain": 143,
  "commit": "e4b9980"
}