{
  "transactions": [
    {
      "hash": "0xfd4f0c147a653e8767fe28d37b0703a1c8bf0b1e4442bdc71c750975597a3fb5",
      "transactionType": "CALL",
      "contractName": null,
      "contractAddress": "0xa1b3abf2bf88c80d3014e0b61d8042103c4fd19d",
      "function": "approve(address,uint256)",
      "arguments": [
        "0xeab7cA8ab4071eaA912650f8d2D7Ed4697016736",
        "1000000000000000000000"
      ],
      "transaction": {
        "from": "0xa031f11d7cdf039eef0e73e47bd5b487f3659b65",
        "to": "0xa1b3abf2bf88c80d3014e0b61d8042103c4fd19d",
        "gas": "0x3c285",
        "value": "0x0",
        "input": "0x095ea7b3000000000000000000000000eab7ca8ab4071eaa912650f8d2d7ed469701673600000000000000000000000000000000000000000000003635c9adc5dea00000",
        "nonce": "0x125",
        "chainId": "0x8f"
      },
      "additionalContracts": [],
      "isFixedGasLimit": false
    },
    {
      "hash": "0xd2982f3d14d4f6329e238e5880e90b45a8baa1c30dcec39e89d02d1c7adf709e",
      "transactionType": "CALL",
      "contractName": null,
      "contractAddress": "0xa1b3abf2bf88c80d3014e0b61d8042103c4fd19d",
      "function": "transfer(address,uint256)",
      "arguments": [
        "0x10663338859fB17E3a608384F338a97a2F2D5370",
        "10000000000000000000000"
      ],
      "transaction": {
        "from": "0xa031f11d7cdf039eef0e73e47bd5b487f3659b65",
        "to": "0xa1b3abf2bf88c80d3014e0b61d8042103c4fd19d",
        "gas": "0x2cd4e",
        "value": "0x0",
        "input": "0xa9059cbb00000000000000000000000010663338859fb17e3a608384f338a97a2f2d537000000000000000000000000000000000000000000000021e19e0c9bab2400000",
        "nonce": "0x126",
        "chainId": "0x8f"
      },
      "additionalContracts": [],
      "isFixedGasLimit": false
    }
  ],
  "receipts": [
    {
      "status": "0x1",
      "cumulativeGasUsed": "0x515bf1",
      "logs": [
        {
          "address": "0xa1b3abf2bf88c80d3014e0b61d8042103c4fd19d",
          "topics": [
            "0x8c5be1e5ebec7d5bd14f71427d1e84f3dd0314c0f7b2291e5b200ac8c7c3b925",
            "0x000000000000000000000000a031f11d7cdf039eef0e73e47bd5b487f3659b65",
            "0x000000000000000000000000eab7ca8ab4071eaa912650f8d2d7ed4697016736"
          ],
          "data": "0x00000000000000000000000000000000000000000000003635c9adc5dea00000",
          "blockHash": "0xe34d2e80c14570cbc9927a7e98a71e4feedd13b1607aa0c328f1bb702986a302",
          "blockNumber": "0x4f26a09",
          "blockTimestamp": "0x6a396c17",
          "transactionHash": "0xd2982f3d14d4f6329e238e5880e90b45a8baa1c30dcec39e89d02d1c7adf709e",
          "transactionIndex": "0x5",
          "logIndex": "0x3d",
          "removed": false
        }
      ],
      "logsBloom": "0x00000000000000000000000000000000000000000000000000000100000000000000000001000000000000000000000000000000000000000000000008200000000000000000000000000000000000000000000000000000000000000000000000000000000000000000002000000400000000000000000000000000000000000000000000000000000000800000000000400000000000000000000000000000020000000000000000000000000000000000000000000000000000000000000000000000000000000000000000000000000000000000002000000000000000000010000000000000000000000000000000000000000080000000000000000000",
      "type": "0x2",
      "transactionHash": "0xd2982f3d14d4f6329e238e5880e90b45a8baa1c30dcec39e89d02d1c7adf709e",
      "transactionIndex": "0x5",
      "blockHash": "0xe34d2e80c14570cbc9927a7e98a71e4feedd13b1607aa0c328f1bb702986a302",
      "blockNumber": "0x4f26a09",
      "gasUsed": "0x3c285",
      "effectiveGasPrice": "0x17c23edb57",
      "from": "0xa031f11d7cdf039eef0e73e47bd5b487f3659b65",
      "to": "0xa1b3abf2bf88c80d3014e0b61d8042103c4fd19d",
      "contractAddress": null
    },
    {
      "status": "0x1",
      "cumulativeGasUsed": "0x54293f",
      "logs": [
        {
          "address": "0xa1b3abf2bf88c80d3014e0b61d8042103c4fd19d",
          "topics": [
            "0xddf252ad1be2c89b69c2b068fc378daa952ba7f163c4a11628f55a4df523b3ef",
            "0x000000000000000000000000a031f11d7cdf039eef0e73e47bd5b487f3659b65",
            "0x00000000000000000000000010663338859fb17e3a608384f338a97a2f2d5370"
          ],
          "data": "0x00000000000000000000000000000000000000000000021e19e0c9bab2400000",
          "blockHash": "0xe34d2e80c14570cbc9927a7e98a71e4feedd13b1607aa0c328f1bb702986a302",
          "blockNumber": "0x4f26a09",
          "blockTimestamp": "0x6a396c17",
          "transactionHash": "0xfd4f0c147a653e8767fe28d37b0703a1c8bf0b1e4442bdc71c750975597a3fb5",
          "transactionIndex": "0x6",
          "logIndex": "0x3e",
          "removed": false
        }
      ],
      "logsBloom": "0x00000000000000000000000000000000000000000000000000000100000000000000000001000000000000000000000000000000000000000000000008000000000000000000000000000008000000000000000000000000000000000000000000000000000000000000002000000200000000000000000000000010000000000000000000000000000000800000000000400000000000000000000000000000000000000000000000000000000000000000000000000000000000000000000000000002000000000000000000000000000000000000000000000000000000000000000000004000200000000000000000000000000000000000000000000000",
      "type": "0x2",
      "transactionHash": "0xfd4f0c147a653e8767fe28d37b0703a1c8bf0b1e4442bdc71c750975597a3fb5",
      "transactionIndex": "0x6",
      "blockHash": "0xe34d2e80c14570cbc9927a7e98a71e4feedd13b1607aa0c328f1bb702986a302",
      "blockNumber": "0x4f26a09",
      "gasUsed": "0x2cd4e",
      "effectiveGasPrice": "0x17c23edb57",
      "from": "0xa031f11d7cdf039eef0e73e47bd5b487f3659b65",
      "to": "0xa1b3abf2bf88c80d3014e0b61d8042103c4fd19d",
      "contractAddress": null
    }
  ],
  "libraries": [],
  "pending": [],
  "returns": {},
  "timestamp": 1782148120656,
  "chain": 143,
  "commit": "e4b9980"
}