{
  "transactions": [
    {
      "hash": "0x65453d1f9c80f021df10b95c3d4ea8abd91d5655478c2c76e75b487104593107",
      "transactionType": "CALL",
      "contractName": null,
      "contractAddress": "0x9ef4b7e09c0ee4a777c1d129afac10bcf889e4e6",
      "function": "approve(address,uint256)",
      "arguments": [
        "0x04D2a0E0b072FD6483bfAb8347B59ccF817Bc836",
        "2000000000000000000000"
      ],
      "transaction": {
        "from": "0xa031f11d7cdf039eef0e73e47bd5b487f3659b65",
        "to": "0x9ef4b7e09c0ee4a777c1d129afac10bcf889e4e6",
        "gas": "0x26ca5",
        "value": "0x0",
        "input": "0x095ea7b300000000000000000000000004d2a0e0b072fd6483bfab8347b59ccf817bc83600000000000000000000000000000000000000000000006c6b935b8bbd400000",
        "nonce": "0x136",
        "chainId": "0x8f"
      },
      "additionalContracts": [],
      "isFixedGasLimit": false
    },
    {
      "hash": "0x74e00e8ff2789faddfdec502b67e35b98db8943dca394a563c0ea2223924482d",
      "transactionType": "CALL",
      "contractName": null,
      "contractAddress": "0x04d2a0e0b072fd6483bfab8347b59ccf817bc836",
      "function": "notifyRewardAmount(address,uint256)",
      "arguments": [
        "0x2490349b41153EE2E50a41b68c6086b525fE124E",
        "1000000000000000000000"
      ],
      "transaction": {
        "from": "0xa031f11d7cdf039eef0e73e47bd5b487f3659b65",
        "to": "0x04d2a0e0b072fd6483bfab8347b59ccf817bc836",
        "gas": "0xceedc",
        "value": "0x0",
        "input": "0xb66503cf0000000000000000000000002490349b41153ee2e50a41b68c6086b525fe124e00000000000000000000000000000000000000000000003635c9adc5dea00000",
        "nonce": "0x137",
        "chainId": "0x8f"
      },
      "additionalContracts": [],
      "isFixedGasLimit": false
    }
  ],
  "receipts": [
    {
      "status": "0x1",
      "cumulativeGasUsed": "0x25d242",
      "logs": [
        {
          "address": "0x9ef4b7e09c0ee4a777c1d129afac10bcf889e4e6",
          "topics": [
            "0x8c5be1e5ebec7d5bd14f71427d1e84f3dd0314c0f7b2291e5b200ac8c7c3b925",
            "0x000000000000000000000000a031f11d7cdf039eef0e73e47bd5b487f3659b65",
            "0x00000000000000000000000004d2a0e0b072fd6483bfab8347b59ccf817bc836"
          ],
          "data": "0x00000000000000000000000000000000000000000000006c6b935b8bbd400000",
          "blockHash": "0x10ec7c2c617df883562de7dd7c75379799e566b8854d34a6427827b7c99b8cbd",
          "blockNumber": "0x4f61bfd",
          "blockTimestamp": "0x6a3ae7ee",
          "transactionHash": "0x74e00e8ff2789faddfdec502b67e35b98db8943dca394a563c0ea2223924482d",
          "transactionIndex": "0x3",
          "logIndex": "0x18",
          "removed": false
        }
      ],
      "logsBloom": "0x00000000000000000000000000000000000000000000000000000000000000000000000001000000000000000000000000000000000000000000000000200000000000000000000000000000000000000000000000000000000000000020000000000000000000000000400000000000000000000800000000000000000000000000000000000000000000800000000000400000000000000000000000002000020000000000000000000000000000000000000000000000000000000000000000000000002000000000000000000000000000000000000000000000000000000010000000000000000000000000000000000000000000000000080000000000",
      "type": "0x2",
      "transactionHash": "0x74e00e8ff2789faddfdec502b67e35b98db8943dca394a563c0ea2223924482d",
      "transactionIndex": "0x3",
      "blockHash": "0x10ec7c2c617df883562de7dd7c75379799e566b8854d34a6427827b7c99b8cbd",
      "blockNumber": "0x4f61bfd",
      "gasUsed": "0x26ca5",
      "effectiveGasPrice": "0x17bfac7c00",
      "from": "0xa031f11d7cdf039eef0e73e47bd5b487f3659b65",
      "to": "0x9ef4b7e09c0ee4a777c1d129afac10bcf889e4e6",
      "contractAddress": null
    },
    {
      "status": "0x1",
      "cumulativeGasUsed": "0x32c11e",
      "logs": [
        {
          "address": "0x9ef4b7e09c0ee4a777c1d129afac10bcf889e4e6",
          "topics": [
            "0xddf252ad1be2c89b69c2b068fc378daa952ba7f163c4a11628f55a4df523b3ef",
            "0x000000000000000000000000a031f11d7cdf039eef0e73e47bd5b487f3659b65",
            "0x00000000000000000000000004d2a0e0b072fd6483bfab8347b59ccf817bc836"
          ],
          "data": "0x00000000000000000000000000000000000000000000003635c9adc5dea00000",
          "blockHash": "0x10ec7c2c617df883562de7dd7c75379799e566b8854d34a6427827b7c99b8cbd",
          "blockNumber": "0x4f61bfd",
          "blockTimestamp": "0x6a3ae7ee",
          "transactionHash": "0x65453d1f9c80f021df10b95c3d4ea8abd91d5655478c2c76e75b487104593107",
          "transactionIndex": "0x4",
          "logIndex": "0x19",
          "removed": false
        },
        {
          "address": "0x9ef4b7e09c0ee4a777c1d129afac10bcf889e4e6",
          "topics": [
            "0x8c5be1e5ebec7d5bd14f71427d1e84f3dd0314c0f7b2291e5b200ac8c7c3b925",
            "0x00000000000000000000000004d2a0e0b072fd6483bfab8347b59ccf817bc836",
            "0x0000000000000000000000002490349b41153ee2e50a41b68c6086b525fe124e"
          ],
          "data": "0x00000000000000000000000000000000000000000000003635c9adc5dea00000",
          "blockHash": "0x10ec7c2c617df883562de7dd7c75379799e566b8854d34a6427827b7c99b8cbd",
          "blockNumber": "0x4f61bfd",
          "blockTimestamp": "0x6a3ae7ee",
          "transactionHash": "0x65453d1f9c80f021df10b95c3d4ea8abd91d5655478c2c76e75b487104593107",
          "transactionIndex": "0x4",
          "logIndex": "0x1a",
          "removed": false
        },
        {
          "address": "0x9ef4b7e09c0ee4a777c1d129afac10bcf889e4e6",
          "topics": [
            "0xddf252ad1be2c89b69c2b068fc378daa952ba7f163c4a11628f55a4df523b3ef",
            "0x00000000000000000000000004d2a0e0b072fd6483bfab8347b59ccf817bc836",
            "0x0000000000000000000000002490349b41153ee2e50a41b68c6086b525fe124e"
          ],
          "data": "0x00000000000000000000000000000000000000000000003635c9adc5dea00000",
          "blockHash": "0x10ec7c2c617df883562de7dd7c75379799e566b8854d34a6427827b7c99b8cbd",
          "blockNumber": "0x4f61bfd",
          "blockTimestamp": "0x6a3ae7ee",
          "transactionHash": "0x65453d1f9c80f021df10b95c3d4ea8abd91d5655478c2c76e75b487104593107",
          "transactionIndex": "0x4",
          "logIndex": "0x1b",
          "removed": false
        },
        {
          "address": "0x2490349b41153ee2e50a41b68c6086b525fe124e",
          "topics": [
            "0x095667752957714306e1a6ad83495404412df6fdb932fca6dc849a7ee910d4c1",
            "0x00000000000000000000000004d2a0e0b072fd6483bfab8347b59ccf817bc836"
          ],
          "data": "0x00000000000000000000000000000000000000000000003635c9adc5dea00000",
          "blockHash": "0x10ec7c2c617df883562de7dd7c75379799e566b8854d34a6427827b7c99b8cbd",
          "blockNumber": "0x4f61bfd",
          "blockTimestamp": "0x6a3ae7ee",
          "transactionHash": "0x65453d1f9c80f021df10b95c3d4ea8abd91d5655478c2c76e75b487104593107",
          "transactionIndex": "0x4",
          "logIndex": "0x1c",
          "removed": false
        }
      ],
      "logsBloom": "0x00000000000000000000000000000000000000000000000000000000000000000000000009000000000000000000000080000000000000000000000000200000000000000000000000000008000000000000000000000000000000000020000000000000000000000010400000000000000000000800000000000010000000000002000000000200000000800000000000400000000000000000000000002000020000000000002000000000000000000000000000000000000000000000000000000002006000000000000000000000000000000000000000000000200000000010000000000000040000000000000000000000000000000000080000000000",
      "type": "0x2",
      "transactionHash": "0x65453d1f9c80f021df10b95c3d4ea8abd91d5655478c2c76e75b487104593107",
      "transactionIndex": "0x4",
      "blockHash": "0x10ec7c2c617df883562de7dd7c75379799e566b8854d34a6427827b7c99b8cbd",
      "blockNumber": "0x4f61bfd",
      "gasUsed": "0xceedc",
      "effectiveGasPrice": "0x17bfac7c00",
      "from": "0xa031f11d7cdf039eef0e73e47bd5b487f3659b65",
      "to": "0x04d2a0e0b072fd6483bfab8347b59ccf817bc836",
      "contractAddress": null
    }
  ],
  "libraries": [],
  "pending": [],
  "returns": {},
  "timestamp": 1782245358024,
  "chain": 143,
  "commit": "e4b9980"
}