{
  "transactions": [
    {
      "hash": "0xd375ae122b8bb86e1aa03cfc39f4ce2f1dc3f455ed836c10f2cd4a20daa67975",
      "transactionType": "CALL",
      "contractName": null,
      "contractAddress": "0xa1b3abf2bf88c80d3014e0b61d8042103c4fd19d",
      "function": "approve(address,uint256)",
      "arguments": [
        "0xeab7cA8ab4071eaA912650f8d2D7Ed4697016736",
        "1000000000000000000000"
      ],
      "transaction": {
        "from": "0x10663338859fb17e3a608384f338a97a2f2d5370",
        "to": "0xa1b3abf2bf88c80d3014e0b61d8042103c4fd19d",
        "gas": "0xfa41",
        "value": "0x0",
        "input": "0x095ea7b3000000000000000000000000eab7ca8ab4071eaa912650f8d2d7ed469701673600000000000000000000000000000000000000000000003635c9adc5dea00000",
        "nonce": "0x46",
        "chainId": "0x8f"
      },
      "additionalContracts": [],
      "isFixedGasLimit": false
    },
    {
      "hash": "0xdeaeed379b1bda30a85a4f5a2a2201b8ae06e1fdad1a725bbd3cbaddce8b27ea",
      "transactionType": "CALL",
      "contractName": null,
      "contractAddress": "0xeab7ca8ab4071eaa912650f8d2d7ed4697016736",
      "function": "deposit(uint256)",
      "arguments": [
        "1000000000000000000000"
      ],
      "transaction": {
        "from": "0x10663338859fb17e3a608384f338a97a2f2d5370",
        "to": "0xeab7ca8ab4071eaa912650f8d2d7ed4697016736",
        "gas": "0x29c78",
        "value": "0x0",
        "input": "0xb6b55f2500000000000000000000000000000000000000000000003635c9adc5dea00000",
        "nonce": "0x47",
        "chainId": "0x8f"
      },
      "additionalContracts": [],
      "isFixedGasLimit": false
    }
  ],
  "receipts": [
    {
      "status": "0x1",
      "cumulativeGasUsed": "0x63c2df",
      "logs": [
        {
          "address": "0xa1b3abf2bf88c80d3014e0b61d8042103c4fd19d",
          "topics": [
            "0x8c5be1e5ebec7d5bd14f71427d1e84f3dd0314c0f7b2291e5b200ac8c7c3b925",
            "0x00000000000000000000000010663338859fb17e3a608384f338a97a2f2d5370",
            "0x000000000000000000000000eab7ca8ab4071eaa912650f8d2d7ed4697016736"
          ],
          "data": "0x00000000000000000000000000000000000000000000003635c9adc5dea00000",
          "blockHash": "0x8f9e8a3b79e1578a97358eb188ed6603615d0b2821c6b87222d3545a71e15aa5",
          "blockNumber": "0x4f26500",
          "blockTimestamp": "0x6a396a12",
          "transactionHash": "0xdeaeed379b1bda30a85a4f5a2a2201b8ae06e1fdad1a725bbd3cbaddce8b27ea",
          "transactionIndex": "0xb",
          "logIndex": "0x41",
          "removed": false
        }
      ],
      "logsBloom": "0x00000000000000000000000000000000000000000000000000000100000000000000000000000000000000000000000000000000000000000000000008200000000000000000000000000000000000000000000000000000000000000000000000000000000000000000002000000600000000000000000000000000000000000000000000000000000000000000000000000000000000000000000000000000020000000000000000000000000000000000000000000000000000000000000000000000000000000000000000000000000000000000002000000000000000000010000000004000200000000000000000000000000080000000000000000000",
      "type": "0x2",
      "transactionHash": "0xdeaeed379b1bda30a85a4f5a2a2201b8ae06e1fdad1a725bbd3cbaddce8b27ea",
      "transactionIndex": "0xb",
      "blockHash": "0x8f9e8a3b79e1578a97358eb188ed6603615d0b2821c6b87222d3545a71e15aa5",
      "blockNumber": "0x4f26500",
      "gasUsed": "0xfa41",
      "effectiveGasPrice": "0x17bfac7c00",
      "from": "0x10663338859fb17e3a608384f338a97a2f2d5370",
      "to": "0xa1b3abf2bf88c80d3014e0b61d8042103c4fd19d",
      "contractAddress": null
    }
  ],
  "libraries": [],
  "pending": [],
  "returns": {},
  "timestamp": 1782147604347,
  "chain": 143,
  "commit": "e4b9980"
}