{
  "transactions": [
    {
      "hash": "0x955896e584f8cd746505eb88faddc70b537d86d67d97f56dd99867cb82257839",
      "transactionType": "CALL",
      "contractName": null,
      "contractAddress": "0xa1b3abf2bf88c80d3014e0b61d8042103c4fd19d",
      "function": "approve(address,uint256)",
      "arguments": [
        "0xeab7cA8ab4071eaA912650f8d2D7Ed4697016736",
        "1000000000000000000000"
      ],
      "transaction": {
        "from": "0x10663338859fb17e3a608384f338a97a2f2d5370",
        "to": "0xa1b3abf2bf88c80d3014e0b61d8042103c4fd19d",
        "gas": "0x974a",
        "value": "0x0",
        "input": "0x095ea7b3000000000000000000000000eab7ca8ab4071eaa912650f8d2d7ed469701673600000000000000000000000000000000000000000000003635c9adc5dea00000",
        "nonce": "0x48",
        "chainId": "0x8f"
      },
      "additionalContracts": [],
      "isFixedGasLimit": false
    },
    {
      "hash": "0x815c1cd1810143f909f27d8b078b765f479864de4518d6a5453e77d97ca438b0",
      "transactionType": "CALL",
      "contractName": null,
      "contractAddress": "0xeab7ca8ab4071eaa912650f8d2d7ed4697016736",
      "function": "deposit(uint256)",
      "arguments": [
        "1000000000000000000000"
      ],
      "transaction": {
        "from": "0x10663338859fb17e3a608384f338a97a2f2d5370",
        "to": "0xeab7ca8ab4071eaa912650f8d2d7ed4697016736",
        "gas": "0x29c78",
        "value": "0x0",
        "input": "0xb6b55f2500000000000000000000000000000000000000000000003635c9adc5dea00000",
        "nonce": "0x49",
        "chainId": "0x8f"
      },
      "additionalContracts": [],
      "isFixedGasLimit": false
    }
  ],
  "receipts": [
    {
      "status": "0x1",
      "cumulativeGasUsed": "0x2aa2ec",
      "logs": [
        {
          "address": "0xa1b3abf2bf88c80d3014e0b61d8042103c4fd19d",
          "topics": [
            "0x8c5be1e5ebec7d5bd14f71427d1e84f3dd0314c0f7b2291e5b200ac8c7c3b925",
            "0x00000000000000000000000010663338859fb17e3a608384f338a97a2f2d5370",
            "0x000000000000000000000000eab7ca8ab4071eaa912650f8d2d7ed4697016736"
          ],
          "data": "0x00000000000000000000000000000000000000000000003635c9adc5dea00000",
          "blockHash": "0xd57a05c1e54e299f71050ba7400ca7b0060be83ec2b27a5cd027ed774e82214d",
          "blockNumber": "0x4f265a2",
          "blockTimestamp": "0x6a396a53",
          "transactionHash": "0x955896e584f8cd746505eb88faddc70b537d86d67d97f56dd99867cb82257839",
          "transactionIndex": "0x8",
          "logIndex": "0x1a",
          "removed": false
        }
      ],
      "logsBloom": "0x00000000000000000000000000000000000000000000000000000100000000000000000000000000000000000000000000000000000000000000000008200000000000000000000000000000000000000000000000000000000000000000000000000000000000000000002000000600000000000000000000000000000000000000000000000000000000000000000000000000000000000000000000000000020000000000000000000000000000000000000000000000000000000000000000000000000000000000000000000000000000000000002000000000000000000010000000004000200000000000000000000000000080000000000000000000",
      "type": "0x2",
      "transactionHash": "0x955896e584f8cd746505eb88faddc70b537d86d67d97f56dd99867cb82257839",
      "transactionIndex": "0x8",
      "blockHash": "0xd57a05c1e54e299f71050ba7400ca7b0060be83ec2b27a5cd027ed774e82214d",
      "blockNumber": "0x4f265a2",
      "gasUsed": "0x974a",
      "effectiveGasPrice": "0x17bfac7c00",
      "from": "0x10663338859fb17e3a608384f338a97a2f2d5370",
      "to": "0xa1b3abf2bf88c80d3014e0b61d8042103c4fd19d",
      "contractAddress": null
    }
  ],
  "libraries": [],
  "pending": [],
  "returns": {},
  "timestamp": 1782147668993,
  "chain": 143,
  "commit": "e4b9980"
}