{
  "transactions": [
    {
      "hash": "0x912470fad950bf2cbe671fad282c3a4a30fe880e9756bee1914da88979926b5c",
      "transactionType": "CALL",
      "contractName": null,
      "contractAddress": "0xa1b3abf2bf88c80d3014e0b61d8042103c4fd19d",
      "function": "approve(address,uint256)",
      "arguments": [
        "0xeab7cA8ab4071eaA912650f8d2D7Ed4697016736",
        "1000000000000000000000"
      ],
      "transaction": {
        "from": "0xa031f11d7cdf039eef0e73e47bd5b487f3659b65",
        "to": "0xa1b3abf2bf88c80d3014e0b61d8042103c4fd19d",
        "gas": "0x245e5",
        "value": "0x0",
        "input": "0x095ea7b3000000000000000000000000eab7ca8ab4071eaa912650f8d2d7ed469701673600000000000000000000000000000000000000000000003635c9adc5dea00000",
        "nonce": "0x127",
        "chainId": "0x8f"
      },
      "additionalContracts": [],
      "isFixedGasLimit": false
    }
  ],
  "receipts": [
    {
      "status": "0x1",
      "cumulativeGasUsed": "0xf5cc8",
      "logs": [
        {
          "address": "0xa1b3abf2bf88c80d3014e0b61d8042103c4fd19d",
          "topics": [
            "0x8c5be1e5ebec7d5bd14f71427d1e84f3dd0314c0f7b2291e5b200ac8c7c3b925",
            "0x000000000000000000000000a031f11d7cdf039eef0e73e47bd5b487f3659b65",
            "0x000000000000000000000000eab7ca8ab4071eaa912650f8d2d7ed4697016736"
          ],
          "data": "0x00000000000000000000000000000000000000000000003635c9adc5dea00000",
          "blockHash": "0x13047567e45cfbe1ad5a3781e02d844e82be0c94d1739435702bc204fba05463",
          "blockNumber": "0x4f26aa9",
          "blockTimestamp": "0x6a396c57",
          "transactionHash": "0x912470fad950bf2cbe671fad282c3a4a30fe880e9756bee1914da88979926b5c",
          "transactionIndex": "0x4",
          "logIndex": "0x9",
          "removed": false
        }
      ],
      "logsBloom": "0x00000000000000000000000000000000000000000000000000000100000000000000000001000000000000000000000000000000000000000000000008200000000000000000000000000000000000000000000000000000000000000000000000000000000000000000002000000400000000000000000000000000000000000000000000000000000000800000000000400000000000000000000000000000020000000000000000000000000000000000000000000000000000000000000000000000000000000000000000000000000000000000002000000000000000000010000000000000000000000000000000000000000080000000000000000000",
      "type": "0x2",
      "transactionHash": "0x912470fad950bf2cbe671fad282c3a4a30fe880e9756bee1914da88979926b5c",
      "transactionIndex": "0x4",
      "blockHash": "0x13047567e45cfbe1ad5a3781e02d844e82be0c94d1739435702bc204fba05463",
      "blockNumber": "0x4f26aa9",
      "gasUsed": "0x245e5",
      "effectiveGasPrice": "0x17bfac7c00",
      "from": "0xa031f11d7cdf039eef0e73e47bd5b487f3659b65",
      "to": "0xa1b3abf2bf88c80d3014e0b61d8042103c4fd19d",
      "contractAddress": null
    }
  ],
  "libraries": [],
  "pending": [],
  "returns": {},
  "timestamp": 1782148184186,
  "chain": 143,
  "commit": "e4b9980"
}